:1000000000000220E135000009360000F10A00007E
:100010000D3600000F360000113600000000000011
:100020000000000000000000000000001336000087
:1000300015360000000000001736000019360000D9
:100040000D1E00001B360000A9200000392600000C
:10005000492600001B3600000D1F0000FD21000096
:1000600065240000752400001B3600001B360000CC
:100070001B3600001B3600001B3600001B3600003C
:100080001B3600001D0700001B3600001B36000059
:10009000B90700001B3600001B3600001B360000AD
:1000A0001B3600001B3600001B3600001B3600000C
:1000B000C52100001B360000000000000000000009
:1000C0001B360000D52100001B360000B5230000C0
:1000D0001B3600001B3600001B3600001B360000DC
:1000E0001B360000000000000000000000000000BF
:1000F000000000001B360000000000001B3600005E
:1001000000000000000000000000000000000000EF
:1001100000000000000000000000000000000000DF
:1001200000000000000000000000000000000000CF
:1001300000000000000000000000000000000000BF
:1001400000000000000000000000000000000000AF
:10015000000000000000000000000000000000009F
:10016000000000000000000000000000000000008F
:10017000000000000000000000000000000000007F
:10018000000000000000000000000000000000006F
:10019000000000000000000000000000000000005F
:1001A000000000000000000000000000000000004F
:1001B000000000000000000000000000000000003F
:1001C000000000000000000000000000000000002F
:1001D000000000000000000000000000000000001F
:1001E000000000000000000000000000000000000F
:1001F00000000000000000000000000000000000FF
:100200000348044B834202D0034B03B118477047A5
:10021000DC090020DC090020000000000548064938
:100220000B1AD90F01EBA301491002D0034B03B104
:1002300018477047DC090020DC090020000000009E
:1002400010B5064C237843B9FFF7DAFF044B13B11E
:100250000448AFF300800123237010BDDC090020A7
:1002600000000000D0C0000008B5044B1BB10449D9
:100270000448AFF30080BDE80840CFE7000000006D
:10028000E0090020D0C00000A3F5803A704700BF0D
:10029000154B002B08BF114B9D46FFF7F5FF0021C2
:1002A0008B460F461148124A121A03F0A1FA0C4B62
:1002B000002B00D098470B4B002B00D09847002014
:1002C000002104000D000B4803F0A8F903F0D2F957
:1002D0002000290000F010F803F0A6F90000080043
:1002E000000000000000000000000220DC090020E7
:1002F000EC12002049360000F8B51448144D154E94
:1003000003F0D8FA4FF0A0430322C3F8502700248B
:1003100045F001054FF47A774FF47A40A847013F42
:10032000FAD12146304603F0C5FA4FF0A042671CCF
:10033000D2F80435D94301F4801103F48013C2F8D4
:1003400008153C46C2F80C35E4E700BFC8AA000017
:10035000F0AA0000D8AA000010B50368292B0446B3
:1003600004D9074940F2CD1000F05EFC23681F2B32
:1003700083BF03F01F03034823604FF0A04010BD6C
:10038000F6AA00000003005007B5019001A8FFF78E
:10039000E3FF019A01239340C0F80C3503B05DF8E8
:1003A00004FB07B5019001A8FFF7D6FF019A0123CE
:1003B0009340C0F8083503B05DF804FB38B5054D2F
:1003C000044645F001054FF47A40A847013CFAD1B4
:1003D00038BD00BFC0AB00002DE9F3413D4F3E4E9C
:1003E0000524022517F8013B019301A8FFF7B4FF8C
:1003F000019B03F5E07340F8235001A816F8013B78
:100400000193FFF7A9FF019B03F5E073013C40F85E
:100410002350E7D1152501A80195FFF79DFF019B0A
:1004200003F5E07340F2032640F82360132401A88B
:100430000194FFF791FF019B03F5E07340F203186D
:1004400040F823601C2601A80196FFF785FF019B59
:1004500003F5E0731E2740F8238001A80197FFF7FA
:100460007BFF019B03F5E07340F823802846FFF7EC
:1004700098FF2046FFF795FF3046FFF785FF384687
:10048000FFF782FF1C20FFF77FFF1E20FFF77CFF96
:100490004FF4FA70FFF792FF1C20FFF782FF1E2037
:1004A000FFF77FFF3220FFF789FF1C20FFF76CFF6B
:1004B0001E20FFF769FF4FF4FA70FFF77FFF1C2043
:1004C000FFF76FFF1E20FFF76CFFFA20FFF776FFA4
:1004D000D8E700BFB6AB0000B1AB00007FB5064661
:1004E0000D46144672B601F04DFA01F08BF8002863
:1004F000FBD1134803F0DEF944F201039E420AD017
:1005000044F202039E4215D1228861680D4803F02F
:10051000D1F9FFF761FFA1680391084601F06CFC77
:10052000236801950093024663680399064803F027
:10053000C1F9EEE72946054803F0BCF9E9E700BF39
:1005400039AB000052AB00006DAB000097AB000070
:1005500008B5FFF741FF000038B50E4B1B680021BE
:10056000986803F0BBF94FF40041002000F0F0FF61
:1005700018B1094A142100F0BBF8084D00F010FF33
:100580000A2445F001054FF47A40A847013CFAD10E
:1005900038BD00BF20000020C6AB000030AC00001A
:1005A0007047000007B5044B0093044A402300F055
:1005B00095FE03B05DF804FB15060000F909002064
:1005C00030B50F4D0FCD89B06C460FC495E80F00C4
:1005D00084E80F0006222823CDE9002309480A4BAE
:1005E00006930022694600F02DFC18B1074A462107
:1005F00000F07EF8064B00221A7009B030BD00BF33
:10060000A4AC00000000002000509D0036AC0000AB
:10061000F809002038B50E480E4C0F4D002323700A
:100620000378EB5CD2B273B1043002F0D9FD18B19B
:100630000A4A562100F05CF8094B1A7812B1237867
:10064000002BFBD038BD0C3002F078FAEFE700BF8A
:1006500000000020390A0020740B002036AC000096
:10066000F809002008B50848084A0378D35C33B17C
:10067000043002F033FDBDE80840FFF7A1BF0C30A5
:1006800002F0F0F9F7E700BF00000020740B002033
:10069000FFF796BF10B50848D4B20378074AD35C79
:1006A000224623B1043002F09BFD204610BD0C30E1
:1006B00002F044FAF9E700BF00000020740B0020AC
:1006C00008B50948094A0378D35C012243B10430D4
:1006D00002F000FE00280CBF01204FF0FF3008BDE3
:1006E0000C3002F09BFAF5E700000020740B0020AC
:1006F00000B583B002900091019244F2010071466E
:100700006A46FFF7EBFE03B000BD0000024B4FF45A
:100710003C6043F001031847D0AC0000F8B51F4916
:100720001F4B0025C1F84051C1F84451C1F8485150
:10073000C1F84C51C1F80051C1F804511B684BB3CA
:10074000D1F8044517490968641A24F07F442F46FC
:100750001A68A24209D8A41A15441A7CDE691AB193
:10076000D3E905201F749047AEB90F4A0F4B11789B
:100770001B788B4205D10133DBB2022B08BF00236B
:10078000137012780A4B43F822500A4B4FF4801230
:10079000C3F80021F8BD3346DAE700BF001001407E
:1007A0005C0B0020580B0020550B0020540B002040
:1007B0004C0B002000E100E02DE9F04FA14AA249D6
:1007C00013780978A14D994285B03CD00133DBB252
:1007D000022B08BF002313709D4912789D4B0F68B0
:1007E00053F822003B1823F07F4300220B602B6854
:1007F00016461446944613B942B12B6006E01968B8
:1008000081420ED902B12B60091A196001272B68A9
:10081000DFF848A201934FF00008BEB9DFF844B2F8
:1008200062E0401A0C44D968D3F81CE0C3F800C059
:1008300031B13A1922F07F42C3E90121DE611E463F
:1008400073460122D7E700263746E0E73446F669CB
:100850007F4B60681B68DFF810C2A168C21A22F0E3
:100860007F42624500F2A8800A442260012222747D
:100870002A680023C4E90133E361002A40F0A5801F
:100880002C60CAE79BF802105A1CD2B291428BF836
:10089000002004BF00228BF80020182202FB03B3C3
:1008A0002A6819799C68022977D0032900F0818091
:1008B000012919D1207CB8B9D96861601A69A26090
:1008C0005A69E2609B69A361634B1B78002B18BFD8
:1008D00001466160BCE78C4200F091808946C9699D
:1008E0000029F8D1002323749BF800309BF80120E5
:1008F0009A42C7D12B68B8F1000F04D1019A9A42ED
:1009000001D1002F43D0002B41D0D3F800A0534D8C
:100910004F4BD5F804751C68DFF850813E1B98F8E2
:10092000003026F07F4603369BB94FF48033C5F87C
:100930004433C5F804334A4B4FF40032C3F88021E6
:100940001A604FF00109C5F80090FFF7DFFE88F844
:100950000090B2452CBF5444A41924F07F44C5F83C
:100960004045D5F80435DB1B23F07F43E41B0333FC
:1009700024F07F44A3420AD9D5F80435C5F84035A0
:10098000FFF7C4FE364B4FF40032C3F80021324B60
:1009900000221A7005B0BDE8F08F114691469FE71E
:1009A0001174D2690123002AFAD1002B9CD02A604D
:1009B0009AE700231946F6E71B1A23F07F438B4280
:1009C00034BFCB1A0023236050E721681368994293
:1009D00013D85B1A1360E26152E7091AD8691A4604
:1009E00038B1034618688842F7D3401A1860184691
:1009F00013462160E061DC610FE71346F2E74C45E6
:100A000011D1D3692B6073B9DFF844E00120CDE93F
:100A10000212CAF80800CEF800300F4B1870FFF72A
:100A200075FEDDE902120B68C969C9F81C1011B125
:100A3000086803440B602B68934218BF4FF001080D
:100A400050E700BF540B0020550B00205C0B00202A
:100A5000580B00204C0B0020480B002000100140D8
:100A600000E100E03C0A0020FEFF7F00490B00206F
:100A700072B6024A1368013313607047600B00209E
:100A8000034A1368013B136003B962B6704700BFA5
:100A9000600B0020EFF30583C3F308032BB9EFF3DA
:100AA0001480C04300F0010070470120704700002F
:100AB00008B5FFF7EFFF012803D00449432000F0F9
:100AC000B3F8BDE80840FFF7D3BF00BFD6AC0000C5
:100AD00008B5FFF7DFFF012803D00449512000F0DB
:100AE000A3F8BDE80840FFF7CBBF00BFD6AC0000BD
:100AF0001EF0040F1CBFEFF309800AE0EFF308803B
:100B00000549064A884201D8904202D88D464FF0E6
:100B10000000034B184700000000022000E0012005
:100B2000250B00002DE9F347054600F02BFF00F0F0
:100B300069FD0028FBD1304C3048314B241AE408C1
:100B400024049F6A44F00104002D4FD0AA692D4966
:100B5000204600F0C9FEEB680193AB682A49009378
:100B60002046D5E9002300F0D4FEEB690093274925
:100B7000D5E90423204600F0C0FE214BDB6A99072B
:100B800003D52349204600F0ABFEDFF89490DFF850
:100B900094A000264FF0010808FA06F33B4206D065
:100BA00059F826201AB15146204600F09DFE013624
:100BB0001A2EF1D13A0605D5114B16495A6B20462B
:100BC00000F092FE17F4004F0D4E04D0B26B1249A4
:100BD000204600F089FED6F8F030DB0700D500BED5
:100BE0002846FFF7B5FC02B0BDE8F0870B49204668
:100BF00000F076FEC1E700BF34C10000D4C00000A1
:100C000000ED00E02BAD000040AD000075AD000030
:100C1000D0AD00001FAE00003FAE00009DAD000053
:100C20001CB3000014AE000007B5ADF80000019140
:100C30006A46002144F20200FFF750FC03B05DF861
:100C400004FB10B5034653E8000F0A4643E80024AE
:100C500094F0000FF7D110BD10B5034653E8002FF4
:100C600042EA010043E8000494F0000FF6D110BD01
:100C700010B5034653E8000F00EA010243E80024E0
:100C800094F0000FF6D110BD10B5034653E8002FC5
:100C900002EB010043E8000494F0000FF6D110BD10
:100CA00010B5034653E8002FA2EB010043E800040F
:100CB00094F0000FF6D110BD0121FFF7CDBF002148
:100CC000FFF7D6BF10B50446002834D003681BB91F
:100CD0001A49FF20FFF7A8FF636823B917494FF4AB
:100CE0008070FFF7A1FFA36823B9144940F20110F7
:100CF000FFF79AFFE36823B910494FF48170FFF7BB
:100D000093FF238A23B90D4940F20310FFF78CFFAC
:100D1000D4E9012321689B1ADBB20A60013BDBB2F4
:100D2000FF2B226802D10020107110BD1168481CF1
:100D300010600B70F2E70E20F7E700BF84B30000ED
:100D400038B5044620B912494FF49270FFF76CFF92
:100D50000020FFF7ADFE2268616813688B4215D949
:100D6000591E116013F8013C228AE56802FB035505
:100D70002268A36811685B1A1179DBB2994200D22C
:100D800013710020FFF7A4FE284638BD0025F8E7C0
:100D900084B3000038B50C46054620B90E4940F230
:100DA0004710FFF741FF24B90B494FF4A470FFF738
:100DB0003BFF0020FFF77CFE2A681368591C116076
:100DC000E968641A298AB4FBF1F41C70BDE8384064
:100DD0000020FFF77DBE00BF84B300001FB503787D
:100DE0008DF800304368019383688DF80830C3683C
:100DF000054A0393054B684653F8213052F82110F9
:100E0000984705B05DF804FB640B00206C0B0020D4
:100E10001FB503788DF800304368019383688DF81F
:100E20000830C368054A0393054B684653F82130E0
:100E300052F82110984705B05DF804FB640B0020C0
:100E40006C0B0020F0B5194B90F800C0DFF86CE097
:100E500043F82C20164B16460A6943F82C204B7F8A
:100E60000EF80C300C4607460FCC89B06D460FC506
:100E700094E80F0085E80F003B78CDF810C01EF80D
:100E800003304BB1002E0B4A694608BF3246381D6D
:100E900002F028F809B0F0BD002E074A694608BFE5
:100EA000324607F10C0001F0EDFCF3E76C0B00207B
:100EB000640B0020DD0D0000110E0000740B0020FB
:100EC00010B5044618B906493120FFF7ADFEA268F7
:100ED0002AB163692168206998470023A36010BD87
:100EE000DAB300000EB433B5059D044618B91149B4
:100EF0004220FFF799FE63691BB90E494320FFF7B3
:100F000093FE23681BB90B494420FFF78DFE6368ED
:100F10001BB908494520FFF787FE35B106AB01AA8A
:100F200029462046019300F071F802B0BDE8304038
:100F300003B07047DAB30000826830B40468551C0F
:100F40008560A154D0E901329A4202D330BCFFF748
:100F5000B7BF30BC704700002DE9F84F9846DDE977
:100F60000A43154682460F460A464FF00109AA4237
:100F70000FD2C14538BFC14613F0010B01D16CB986
:100F800000240126B8F1010F1BD908F1FF386E4388
:100F9000F8E709F10109B2FBF5F2E8E79B070ED586
:100FA000B8F1000F0CBF30262026A145E9D2013C44
:100FB00031465046FFF7C0FF002CF6D1E0E720266F
:100FC000F3E7B7FBF6F39D42E1D9DFF83C80B7FBCE
:100FD000F6F3504618F8031006FB1377FFF7ACFF43
:100FE0003346AB42B6FBF5F6F1D2BBF1000F02D0AF
:100FF0000CB1A14501D3BDE8F88F20215046013C3A
:10100000FFF79AFFF4E700BF6DB400002DE9F74F3A
:1010100088461746054620B9AF4940F25220FFF7EF
:1010200003FE6B6923B9AC494FF41570FFF7FCFD63
:101030002B6823B9A84940F25520FFF7F5FD6B68EE
:1010400023B9A54940F25620FFF7EEFDB8F1000F95
:1010500000F03E8118F8011B49B92B7B002B00F0F2
:101060003781284603B0BDE8F04FFFF729BF252997
:1010700040F0B780002698F800302D2B424608F14A
:10108000010823D0302B24D02B2B25D000242A2B51
:1010900002F1010123D13B681A1D3A601B680A4620
:1010A0001C4413782E2B26D101324FF0000A104633
:1010B00010F8011BA1F1300CBCF1090F1DD80A2357
:1010C00003FB0A13A3F1300A0246F0E746F00106DB
:1010D000D1E746F00206CEE746F00406CBE711F86A
:1010E000013CA3F130000928DBD80A2202FB0434BA
:1010F000303C0A46CBE74FF0000A12F8011B01F022
:10110000FB0068289046F8D0782909D86F290CD8B8
:10111000632962D022D8252963D0582900F088801D
:1011200098F80030002B95D197E770390829F7D847
:1011300001A353F821F000BFAB1200002111000001
:101140002111000041120000211100001F120000B7
:10115000211100002111000031120000642901D08A
:101160006929DDD13A68111D3960D2F8009089EA09
:10117000E972A2EBE9724FF0010B092A35DCD34585
:1011800038BFD3462CB1B9F1000F01DB720700D58F
:10119000013CB30702D5BAF1000F03D0F00701D428
:1011A0004CBB0024B9F1000F2DDAC9F100092D2143
:1011B0002846FFF7C1FE06F00302022A04D1BAF165
:1011C000000F01D11CBB0024CDE9004653460A2282
:1011D00049462846FFF7C0FEA2E73B681A1D3A6061
:1011E00019782846FFF7A8FE9AE70A230BF1010BAE
:1011F000B2FBF3F2C1E7A345D4D220212846013C3B
:10120000FFF79AFECCE77107D5D52B21D0E7A34590
:10121000DAD230212846013CFFF78EFED2E739684A
:10122000CDE900460A1D3A6053460A220968D0E714
:1012300039680A1D3A60CDE9004653461022F5E7A9
:101240003B681A1D3A6016F00106D3F8009024D1CD
:10125000B9F1000F03D0484602F012FC0646B44232
:101260001DD809F1FF3919F8011F00293FF458AFC3
:101270002846FFF761FEF6E728460136FFF75CFED9
:1012800019F806100029F7D1A642BFF449AF202172
:101290002846013CFFF750FEF6E70026F0E7202144
:1012A0002846013CFFF748FED9E73B681A1D3A6023
:1012B000302128461C68FFF73FFE78212846FFF7BB
:1012C0003BFE00220823CDE900322146102280E7B0
:1012D00003B0BDE8F08F00BF20B40000F0B595B0BA
:1012E0001D46164608460C4600F01FFD1A9B0D933E
:1012F000CDE9086500252B46082205A920460A9558
:101300008DF82C500C9500F037FD079B0293069B3F
:1013100003939DF814308DF8115003F00302012A55
:101320001DD1BDF81420059DC3F3C203C2F383167B
:101330008DF81030B20008230EA9204600F01CFDE5
:10134000C5F3952508AB0093324602AB0EA928469B
:1013500000F08CFB204600F0ECFC15B0F0BD022A3A
:10136000F8D1BDF81650C3F3C203C5F389158DF843
:1013700010300827082D2E4628BF08263B46324647
:101380000EA9204600F0F8FCAD1B08AB02AA3146BE
:101390000EA8374400F0CEFB002DEBD1DAE70000B9
:1013A00008B5FFF775F90748042100F0C1FA0028D5
:1013B00003DA05494820FFF737FC044B01225A7134
:1013C00008BD00BF58C100007DB40000140000201B
:1013D000037813F0040216D003F00303012B03D0AB
:1013E000022B09D0012070470A6800880232C0F33E
:1013F000831002440A60F5E70B684288023303EB6E
:1014000092130B60EEE71046704700002DE9F04F95
:10141000DFF838A10F4687B00446861C0020154629
:10142000FFF746FBDAF800103960DAE901321344BD
:1014300001335B1A0AF21C470AF583690AF2144861
:10144000B3421BD30020002D7AD004F00F039B0180
:1014500043F0050363F30F00DAF80020DAF80830F0
:101460001340033332444AF823000020CAF8002016
:10147000FFF72EFB012007B0BDE8F08F01213846B1
:10148000FFF702FC4846FFF717FC4046FFF714FC45
:10149000DAF80400DAF808B0029000EA0B00033032
:1014A0000AEB800002A9FFF793FF029B0246F8B9FE
:1014B0000BEA03010AEB810103F1020CC8680390F7
:1014C000013303EA0B0B0AEB8B0B00F0030001283E
:1014D000DBF80C10CDF808C02AD002280BD01A492E
:1014E00001924FF4BF70FFF79FFB019A93460CE007
:1014F0000BEA0300D3E7BDF80E30C3F389130333BF
:101500004FEA114B0CEB930302934046FFF7D7FBD6
:1015100010B1029BCAF8043059463846FFF7B4FBB5
:10152000DAE901231344DAF8002001339B1A87E734
:10153000BDF80C30C3F383134FEA114B6344E3E768
:10154000A40544F0060087E7EDB40000480C002035
:101550000B4B0C48FF2210B59A600022C3F81824E8
:10156000C3E90022C3F81424012283F8202400F0E8
:1015700095FB044610B9044800F012FC204610BD4B
:10158000480C002044C100005CB5000030B50A4C96
:1015900071B10A4A0A49121BD20800239A4201D1AA
:1015A000002030BD31F82350854202D00133F5E7E9
:1015B000034654F83300F4E7D4C0000044C10000EF
:1015C000DC090020094B013903EBC000032909D8CD
:1015D000DFE801F00A020406042070470079704732
:1015E000407970470020704702207047D4C0000047
:1015F000034BD3E90030C31A58425841704700BF2B
:10160000480C00202DE9F04385B0FFF7F1FF0646B6
:10161000002840F0FA807E4CC4F81804BFF34F8FC6
:101620006368A56800932B40033304EB830069468D
:10163000FFF7CEFE009B18B1D4F81824002A62D020
:1016400005EA0302991C013304EB82022B4004EBF0
:101650008303D268DB68029302F00303022B01923A
:10166000009163D1BDF806306A48C3F38917502F43
:10167000B84628BF4FF0500808F1080168F38F13EF
:10168000C1F30901ADF8063000F020FB0646002842
:1016900000F0A68000F049FB0023082201A9304693
:1016A00000F056FB009925EA01020132B8EB820FE7
:1016B0004FEA820333D95FFA88F863B32940DDB279
:1016C000A8EB050803315FFA88F9A846524D04EBF0
:1016D000810108234246304600F03AFB3DB108F153
:1016E0000803DBB24A462946304600F031FB009B36
:1016F000033703EB97070097D4F81834002B4BD12E
:10170000D4F810545BE0226893428CD36260304678
:1017100005B0BDE8F08340491D469946D9E7294008
:1017200003310823424604EB8101DDE7012B57D149
:10173000BDF804303748C3F38311062928BF0621BA
:1017400061F38913023101F00F018900ADF8043013
:1017500000F0BCFA0646002842D000F0E6FA00236A
:10176000082201A9304600F0F3FA0027BDF8042052
:10177000C2F38312BB00974203F10803BCD2009965
:101780004A1C29400331009204EB810104223046B7
:1017900000F0DEFA0137E9E7304600F0CAFAFFF759
:1017A00027FF80F00100C6B2B1E7EB685B7923B197
:1017B0002B6831461B6828469847EB681D68002D4A
:1017C000F3D1304600F0B5FA2846FFF771F9D4F8A6
:1017D00018340BB9009B63600020FFF779F9DEE74E
:1017E000D4F8104454B90D4B0D480E49C01AC00826
:1017F000000440F0020000F073F8D0E723682046B0
:101800009B689847E3681C68ECE700267FE700BF09
:10181000480C002044C10000540C0020D4C000003B
:1018200024C1000044B500002DE9F74F274E0446BF
:101830000F46914601A901221846D6F808A09846FD
:10184000FFF7E4FD78B3019D0023A81C434503EB9B
:10185000000132D100211E48FFF7F3F94FEA144985
:1018600080F3100B1B4B1C4A9B1AB9EBD30F04D30C
:101870001A4940F2A310FFF7D7F96B1C03EA0A03D9
:10188000E40006EB830304F0380449EA0B4005EA60
:101890000A0544F00104D860033544EA881343EA9A
:1018A000872346F8253096F820341BB1FFF7AAFEAF
:1018B0000028FBD103B0BDE8F08F0AEA010106EB76
:1018C000810159F82320CA600133BFE7480C00208A
:1018D0006410002044C10000D4C00000EDB400003A
:1018E00000231A46FFF7A0BF07B50123019201AA02
:1018F000FFF79AFF03B05DF804FB1FB5CDE90123A4
:10190000069B039301AA0323FFF78EFF05B05DF842
:1019100004FB1FB5CDE90023069B0293079B0393AD
:101920006A460423FFF780FF05B05DF804FB000062
:1019300030B51349D1F810440346002022464AB975
:10194000DC682071D1F8104454B9C1F81034DB6858
:101950001A6030BDD268157985420AD01268EEE768
:10196000E468DA6824681460D1F81024D26813603F
:10197000EFE701300A28E1D14FF0FF30E9E700BF7F
:10198000480C002038B5084B0125D3F8104483F8E3
:10199000205404B938BDE3685D71236820465B6854
:1019A0009847E3681C68F4E7480C002030B5C3880A
:1019B00085B004460D4633B1144A00921449154AC5
:1019C0002846FFF78FFA217A05291DD0637A4BB19B
:1019D000A088FFF7F7FD104B104953F82020284648
:1019E000FFF780FA227A0E4BA08853F82220039248
:1019F0000021FFF7CBFD039A0A490346284605B0AC
:101A0000BDE83040FFF76EBA05B030BD88B50000C4
:101A100070B5000068B50000F4B500008DB5000099
:101A200018B6000090B5000007B503460846197ABD
:101A3000052911D05B7A2BB1094A0A490190FFF7B9
:101A400051FA019808490190FFF74CFA019803B048
:101A50005DF804EBFFF734BA002AF8D0F2E700BFD4
:101A600088B500008DB5000085B500002DE9F04374
:101A700085B01F460C9D002395F80C902B730646ED
:101A80000C46904629463846FFF790FFB8F1060FFE
:101A900009D8DFE808F00412181F28334000314647
:101AA0002846FFF71FFA002229463846FFF7BCFFF9
:101AB00085F80C9005B0BDE8F083226831462846D1
:101AC000FFF710FAEFE7D4E9002331462846FFF785
:101AD00009FAE8E7A36800933146D4E900232846D1
:101AE000FFF700FADFE7E3680193A368009331464C
:101AF000D4E900232846FFF7F5F9D4E723690293D8
:101B0000E3680193A36800933146D4E90023284693
:101B1000FFF7E8F9C7E76369039323690293E36872
:101B20000193A36800933146D4E900232846FFF7C8
:101B3000D9F9B8E708292DE9F84F80460E4617462F
:101B40001C463DD8002593F80C901D73194610468D
:101B5000FFF72CFFDFF890A0DFF890B0AE4231D94C
:101B600018F8052059462046FFF7BCF90135082D25
:101B7000F4D11A491A4DDFF878A02046FFF7B2F9E0
:101B80004FF0000B5E4524D918F80B207E2A1ED892
:101B9000511C144BC9B2C95C11F0970F08BF2E221B
:101BA00051462046FFF79EF90BF1010BBBF1080FE0
:101BB000E8D1012221463846FFF736FF84F80C9021
:101BC000BDE8F88F51462046FFF78CF9CEE72E226C
:101BD000E6E729462046FFF785F9E5E7A4B50000CA
:101BE000A2B5000040BD0000A0B500009AB50000FD
:101BF000A6B500002DE9F74F99469DF830300093C7
:101C000088469346064618B92349B620FFF70CF8D4
:101C1000F28871794A43043A4A4505D81E4901922F
:101C2000C420FFF701F8019ADBF80070B6F806A0AF
:101C300007EB0901914209F1040488BFA2EB0907EF
:101C4000B4FBFAF5CBF800700AFB154445B9AAEBD2
:101C5000040BBB4528BFBB462FB903B0BDE8F08FCE
:101C60003668013DF2E7009B043408EB050034447C
:101C70005A466BB12146A7EB0B0701F01FFDBA4591
:101C80005D443668D3464FF0000428BFBB46E3E707
:101C900001462046EFE700BF2CB60000FFF712B860
:101CA000F8B546790146721E0546002393422D6819
:101CB00003D30024A64202D8F8BD0133F6E70F682B
:101CC0002846FFF767F801343946F3E72DE9F84372
:101CD000CD1C068A0746FFF733F8043E3544044618
:101CE000B5FBF6F5F0B14FF48073EDB28380C6809A
:101CF000013D076081464FF00008A84512D23846E2
:101D0000FFF71EF8064648B163790133637108F1A5
:101D10000108C9F8000007608146EEE72046FFF79A
:101D2000BFFF34462046BDE8F88301210430FEF7AA
:101D3000ABBF10B5012104460430FEF7B1FFC0B2BD
:101D400020B92046BDE81040FFF7AABF10BD000033
:101D50001FB5144603920022009203AAFFF74AFF20
:101D6000039BA34203D00349F620FEF75DFF04B0B6
:101D700010BD00BF2CB600001FB51446039201220F
:101D8000009203AAFFF736FF039BA34204D0034946
:101D90004FF48070FEF748FF04B010BD2CB6000071
:101DA000826800239360826813618268536182684D
:101DB000D3608268536082681360704710B50D4924
:101DC000A1F58C72914201D800200FE08C1AE30F2C
:101DD00003EBE4035B1002EBC30452F8333083429D
:101DE00005D802D204F10802ECE7606810BD214674
:101DF000E8E700BF44BB000008B5FFF7DFFF024B78
:101E0000002808BF184608BD16BA000007B54FF0F5
:101E10008043D3F8002162B10020C3F80001D3F859
:101E200000210092009A0122C3F808230D4B1B6881
:101E300098474FF08043D3F8042182B10022C3F8C1
:101E40000421D3F804210192019A0222C3F8082345
:101E5000044B1B68012003B05DF804EB184703B086
:101E60005DF804FB0411002000F1804000F5C04043
:101E7000002382B0036003680193019B02B07047A6
:101E8000C208012300F0070003FA00F08B5C18433E
:101E90008854704710B50368292B044604D90749B4
:101EA00040F2CD10FEF7C0FE23681F2B83BF03F066
:101EB0001F03034823604FF0A04010BDF6AA0000A6
:101EC0000003005013B5019001A80C46FFF7E2FF94
:101ED000019B00EB8300D0F8003723F44033C0F8B7
:101EE0000037D0F8003743EA0443C0F8003702B0A7
:101EF00010BD00004FF0A043D3F810350360024B33
:101F0000D3F8103543607047000300502DE9F04FBF
:101F100000248BB0CDE90244604D4FF48072012162
:101F200002F1804303F5C04390B21B68012B06D138
:101F3000D5F804330B4202D0FFF796FF0C4304326E
:101F4000B2F5907F4FEA4101EAD1544BD3F87C318E
:101F5000012B08D14FF4BE70FFF786FF02A844F0B2
:101F60000044FFF7C7FFE3B2D3B14D4F0025012670
:101F7000344210D0AB0003F1804303F5C043D3F8E3
:101F80001005D3F8101557F8253023B1C1F30141DE
:101F9000C0F3052098470135082D4FEA4606E7D1E2
:101FA000002C78DA0023CDE904334FF0FF33CDE97C
:101FB0000633DFF8ECA03B4B019300263546019B2E
:101FC00013F9014B0193631C4FD0C4F3C2070122E4
:101FD000E3B204F03F0B04F0070402FA04F407F143
:101FE00028020DEB020717F8101C21423DD00AEB26
:101FF0000B014FEA931991F930105AF82180B8F18A
:10200000000F07D1B9F1030F2FD104A95846FFF7EC
:1020100037FF02E0B9F1030FF7D008A8CDF820B0E0
:10202000FFF738FF089901F5E07150F8211017F813
:10203000200C2042C1F3014106D0022915D1B9F18B
:10204000030F0CD1494605E003290ED1B9F1030F66
:1020500005D102215846FFF735FF0135EDB2B8F141
:10206000000F02D049465846C0470136042EA6D17B
:102070008DB108A8FFF73EFF029B089A9A42099B80
:1020800002D103998B4206D002920393049A059BD6
:10209000069207938FE70BB0BDE8F08F0060004019
:1020A0000C1100206611002010B5054C23681BB9E7
:1020B00004495120FEF7B8FD2368BDE810401847D9
:1020C0007411002051BB000038B50D4628B90C49E9
:1020D0007720FEF7A9FD002038BD0A4B9842FAD1BF
:1020E0000020FEF7E5FC084B1C7914B901221D60A5
:1020F0001A710020FEF7ECFC002CECD01120EBE76D
:1021000051BB0000002000407411002018B906499E
:102110009B20FEF789BD054B984201BF044B00226E
:102120001A601A71704700BF51BB000000200040C8
:10213000741100200023435082B043580193019B47
:1021400002B0704770B5D0F8103105460C4653B157
:102150004FF48871FFF7EEFF63795A0703D52368C0
:102160000BB101209847D5F814315BB14FF48A7157
:102170002846FFF7DFFF63791B0703D523680BB100
:1021800002209847D5F81C315BB128464FF48E7178
:10219000FFF7D0FF607910F0100002D1236803B17F
:1021A0009847D5F8043163B14FF482712846FFF7A0
:1021B000C1FF0123237123681BB1BDE870400320D8
:1021C000184770BD01490248FFF7BCBF7C110020D1
:1021D00000C0014001490248FFF7B4BF841100204C
:1021E0000010024000F1804000F5E040002382B082
:1021F000036003680193019B02B07047F0B5524B36
:10220000524CD3F8043185B0002B3DD094F82E20E9
:102210004FF48270FFF7E6FF2AB394F82F3013BB18
:10222000494AD2F80031002B32D04FF48070FFF7CA
:10223000D9FF638B94F82D00834250D921891B1A52
:102240009BB289B26383CB1A616801EB4303C2F886
:102250002C36C2F830064FF48270FFF7C3FF3A4BBA
:1022600001225A6014E0636802932389ADF80C30B0
:10227000E36800218DF8041033BB2374236801A8A0
:102280009847002384F82F3094F82E30002BC7D1C4
:102290002D4BD3F810315BB14FF48870FFF7A2FFDC
:1022A0000023237402238DF8043001A82368984783
:1022B000254BD3F81431EBB14FF48A70FFF792FF3E
:1022C0000023237405B0F0BD208B60836360208100
:1022D000E160002AD2D11C4B01221A60CEE7BAD1AC
:1022E000E368012184F82F1013B100216183AEE768
:1022F0006383B0E766694FF000470125002EE1D007
:10230000B6FA86F227FA02F34632920026EA03066C
:1023100002F1804303F5E0431B68002BEED010462A
:10232000A2F58C72FFF75EFFD30882F00402C2F3BD
:1023300080028DF808308DF8045023688DF809204C
:1023400001A89847DAE700BF007000408C11002018
:1023500010B50368292B044604D9074940F2CD1073
:10236000FEF762FC23681F2B83BF03F01F030348A3
:1023700023604FF0A04010BDF6AA000000030050FB
:1023800007B5019001A8FFF7E3FF019A01239340ED
:10239000C0F80C3503B05DF804FB07B5019001A847
:1023A000FFF7D6FF019A01239340C0F8083503B028
:1023B0005DF804FB13B5144BD3F8182112B30022B7
:1023C000C3F81821D3F81831104C0193019B2368EE
:1023D00023B90F494FF42770FEF726FCE07FFF2852
:1023E00003D0A37F5BB1FFF7CBFF0023637723729A
:1023F000D4E90031074802B0BDE810401847FFF7A4
:10240000CCFFF2E702B010BD00300240BC1100204A
:10241000AEBB0000C41100202DE9F743002406469E
:102420000F4600F5A0754FF48038A1462B688BB19C
:10243000D6F8043308FA04F21A420BD0C5F800901B
:102440002B680193019BA30003F5A07398B2D7E911
:10245000003198470134042C05F10405E6D103B09E
:10246000BDE8F08301490248FFF7D6BFE011002024
:102470000080004001490248FFF7CEBFEC11002068
:10248000009000400023435082B043580193019BC9
:1024900002B070470B7B032B2DD8DFE803F0252912
:1024A0001D028A68154B9A4204D1D0F84C350A694E
:1024B0009A4209D18A6840F202239A421BD1D0F88D
:1024C0004C354A699A4216D000230622C0F80035DE
:1024D000C0F8002518467047D0F84C350A699A4272
:1024E000F2D1D0F83C35ECE7D0F84C350A69E9E791
:1024F000D0F83C35FAE70120704700BF0002040025
:10250000F0B50B6887B005460C4623B9484940F240
:102510008620FEF789FBD5F82431B3B14FF49271D0
:102520002846FFF7AFFFD5F8043173B9A368C5F8A3
:1025300008330223A360A368C5F8043301232B6288
:102540006B6184F82E3007B0F0BDD5F804316BB361
:102550004FF48271284604F10C07FFF793FF0FCF69
:1025600001AE0FC63B68336094F82E303BB921466C
:102570002846FFF78FFF80F0010084F82E004FF40B
:10258000B0712846FFF77EFF4FF4AE71FFF77AFF78
:1025900094F8303013B194F82E30CBB10023C5F845
:1025A0000032A360234BC5F8083311E04FF4A47147
:1025B0002846FFF767FF237BEBB904F10C070FCF29
:1025C00001AE0FC63B68336094F83030002BE6D084
:1025D000D5F8C434C5F8C4349A071ED501238DF844
:1025E000003094F830300BB984F82F30D4E9003142
:1025F00068469847A7E74FF40073C5F8003240F2E9
:102600000223A36003F1CE73C5F80833A368C5F8AD
:1026100004330123AB602B6295E713F0050F01D063
:102620000223DCE794F82E30002BD8D00423D6E721
:1026300005BC000002029C0101490248FFF760BF8F
:10264000F81100200030004002494FF04020FFF711
:1026500057BF00BF2C1200200023435082B04358C4
:102660000193019B02B070470A4610B54FF48E717A
:10267000FFF7F2FF136A9168C95C136A01331362B2
:10268000C0F81C1510BD08B502464FF492710068E1
:10269000FFF7E2FF10684FF48471FFF7DDFF136866
:1026A00001221A6008BD000010B50368292B0446FA
:1026B00004D9074940F2CD10FEF7B6FA23681F2B64
:1026C00083BF03F01F03034823604FF0A04010BDF9
:1026D000F6AA00000003005007B5019001A8FFF71B
:1026E000E3FF019B03F5E073022240F8232003B0CF
:1026F0005DF804FB10B58B690A464FF4847123B969
:10270000FFF7AAFFD0F8183510BDFFF7A5FF536AF1
:10271000D168D0F81805C854536A01335362F3E7FF
:102720001FB501238DF80030044BCDE90110D3E92A
:1027300000126846904705B05DF804FB6012002067
:1027400030B54E4DD5F804339A0585B051D5D5F83E
:102750002431002B4DD04FF492712846FFF77CFFB7
:102760004FF40173C5F80833454B93F829200AB993
:1027700001226A60414902228DF80020D1F88024AC
:10278000C1F8802403929A690292DA6801920022C9
:10279000C3E906226846D3E9001290473748D0F8CB
:1027A0001C315BB1364A5169136A99424ED992F88D
:1027B0002830002B4AD11146FFF756FF2F48D0F89A
:1027C0004431002B57D04FF4A271FFF745FF2C4B3B
:1027D00093F829200AB1012202609A69002A4AD09E
:1027E000586AD96800229A6105B0BDE83040FFF709
:1027F00097BFD5F804335B07D0D5D5F80831002B47
:10280000CCD01F4C1D482146FFF774FF636AA269B4
:102810009A42C3D1E36953B1A3612369E168E360DC
:102820000023606AE3616362FFF77AFFB6E794F81A
:1028300029300BB901236B60104B4FF40172C3F8C0
:1028400008230023606AE168A361EDE70B484FF4B9
:102850008E71FFF701FF5369002BAFD051690291D0
:10286000002391688DF80030019153616846D2E9E8
:1028700000139847A2E705B030BD00BF002000401C
:10288000601200202DE9F347054691460C4619B920
:102890006D49AA20FEF7C8F995F804806B4E2C23E9
:1028A00003FB086393F82A30002B40F0C980684985
:1028B0002868FFF709FC0746002840F0C38023681A
:1028C0005A1C14D001A80193FFF7EEFE019B0122D0
:1028D00002FA03F3C0F808352368019301A8FFF753
:1028E000E3FE019B03F5E073032240F823206368B5
:1028F000581C09D001A80193FFF7D6FE019B03F5F0
:10290000E073002240F823202B68A269C3F8242535
:10291000217D637D2A680B43C2F86C35D4E900122F
:102920002B68C3F81425C3F80C15237D012B2BD17C
:10293000A368591C09D001A80193FFF7B5FE019BBC
:1029400003F5E073002240F82320E3685A1C14D0FA
:1029500001A80193FFF7A8FE019B012202FA03F3ED
:10296000C0F80835E368019301A8FFF79DFE019BBD
:1029700003F5E073032240F82320D4E902122B6808
:10298000C3F80825C3F810152C2303FB08F3F2182D
:10299000C2F804902269F250B9F1000F3CD02868C7
:1029A00094F81C902B4A4FF48E71FFF755FE28685F
:1029B0004FF4A271FFF750FE2B68C3F804232C6874
:1029C000B9F1070F4FEA143A44F3073403D9224907
:1029D0006B20FEF729F9002CAEBF04F160431F4BBA
:1029E0000AF00F0A4FEA4919A8BF03F561435FFADD
:1029F00089F9B4BF03F80A9083F800932B681A0B87
:102A000043F30733002B07DB02F01F0101228A404A
:102A10005B09134941F823202B680422C3F80025E1
:102A20002C2303FB08630022C3E9062283F8292034
:102A30005A61012283F82A20384602B0BDE8F087A7
:102A40000827F9E71127F7E756BC000060120020BD
:102A50004127000080000200A2BC000014ED00E04D
:102A600000E100E02DE9F843036806792A4D0022D1
:102A7000C3F800252C2303FB065304465B68B3B15F
:102A80000368264AC3F8082303681A0B43F3073385
:102A9000002B0CDB02F01F015B0901228A4020336E
:102AA0001F4941F82320BFF34F8FBFF36F8F236877
:102AB0004FF0FF32D3F80C05D3F81495D3F808750E
:102AC000D3F81085C3F81425C3F80C252368904269
:102AD000C3F80825C3F8102501D0FFF7FDFDB9F1B3
:102AE000FF3F02D04846FFF7F7FDB8F1FF3F02D0A5
:102AF0004046FFF7F1FD7B1C02D03846FFF7ECFDA6
:102B00002068FFF703FB2C2303FB0655002385F801
:102B10002A306B60BDE8F883601200208402020056
:102B200000E100E00279044B2C2101FB02335869DB
:102B3000003818BF01207047601200202DE9F84FBF
:102B4000344F90F804802C2303FB0873064693F857
:102B50002A30012B8946924604D02F494FF48C70BD
:102B6000FEF762F8B9F1000F04D12B4940F21910B9
:102B7000FEF75AF8BAF1000F04D127494FF48D70CF
:102B8000FEF752F83046FFF7CDFF044600283CD14F
:102B90002C2508FB057B4FF48E71CBF814A0CBF8E5
:102BA0000890CBF820008BF828003068FFF754FD20
:102BB000336801229A6030685946FFF755FDDBF80B
:102BC00004305D461BBB3068DBF814402B6A9C4226
:102BD00011D83368D3F81C21002AFBD00122DA6017
:102BE00000202C2303FB087700237B61BDE8F88FCE
:102BF00095F828303BB9D0F81C31002BF8D0594655
:102C0000FFF732FDE2E70F20EBE71120EEE7204669
:102C1000ECE700BF6012002056BC00002DE9F04731
:102C2000494C07792C2303FB0743064693F82A30C7
:102C3000012B8846154604D044494FF4B670FDF781
:102C4000F3FFB8F1000F04D1404940F26D10FDF7D9
:102C5000EBFF25B93D494FF4B770FDF7E5FF2C2395
:102C600003FB07435A6822B133684FF40171C3F87C
:102C700008132C2303FB0743986950B1D969002935
:102C800042D022B133684FF40172C3F804231125F6
:102C900037E09D61C3F80C805862D8612C2303FB98
:102CA000074393F829301BB910B93046FFF7EBFC06
:102CB0004FF02C0808FB074A3068DAF80430002B84
:102CC00038D14FF4A271D046FFF7C6FC3068D0F877
:102CD0002491D0F80831D0F84451D3B915B9B9F1DD
:102CE000000FF3D02C2303FB07440023A361B9F1A9
:102CF000000F25D135BB94F8291033680122B9B1F2
:102D00001A602846BDE8F087C3F81080DD61012015
:102D1000C4E7B9F1000FE5D1002DE3D14146FFF73B
:102D2000E9FCDAF82430DAF818209A42CED8D9E74C
:102D30005A60E6E74FF40173C0F804330025E0E77A
:102D40000325DEE70F25DCE76012002056BC0000FB
:102D50000023435082B043580193019B02B0704757
:102D600010B50368292B044604D9074940F2CD1059
:102D7000FDF75AFF23681F2B83BF03F01F0303488F
:102D800023604FF0A04010BDF6AA000000030050E1
:102D900007B5019001A8FFF7E3FF019B03F5E0737E
:102DA000022240F8232003B05DF804FB1FB5012385
:102DB0008DF80030044BCDE90110D3E900126846CC
:102DC000904705B05DF804FB8C1200207FB5434AA4
:102DD000D2F82461002E60D010464FF49271FFF7B4
:102DE000B7FF02238DF80030D2F88034C2F8803467
:102DF0000393D2F83C350293394BDA6801920022F2
:102E0000C3E906226846D3E9001290473348D0F858
:102E1000443173B14FF4A271FFF79AFF304B9A69B6
:102E20003AB10022C3E90622D968D0F83C05FFF781
:102E3000BDFF2A48D0F82031ABB14FF49071FFF7B5
:102E400087FF0123C360264B5A6962B1D0F84C1545
:102E50000291002299688DF8002001915A6168461C
:102E6000D3E9001290471D48D0F858319BB14FF478
:102E7000AC71FFF76DFF1A4B5A6962B1D0F84C156F
:102E80000291002299688DF8002001915A616846EC
:102E9000D3E90012904704B070BDD2F81031002B76
:102EA000B4D04FF488711046FFF752FF0C4BD2F8A4
:102EB0003C0599698842A9D1DC69D96864B1D2F826
:102EC000005225F02005C2F800521A699C61DA60B0
:102ED000DE61FFF76BFF99E79C61FAE70020004095
:102EE0008C1200202DE9F347054691460C4619B98E
:102EF0007349CF20FDF798FE95F80480714E242386
:102F000003FB086393F82030002B40F0D4806E4917
:102F10002868FFF7D9F80746002840F0CE802368DC
:102F20005A1C13D001A80193FFF71AFF019A01233D
:102F30009340C0F808352368019301A8FFF710FFFC
:102F4000019B03F5E073032240F823206368581CBB
:102F500009D001A80193FFF703FF019B03F5E0737C
:102F6000002240F823202B68A269C3F82425217D84
:102F7000637D2A680B43C2F86C35D4E900122B68D4
:102F8000C3F80C15C3F81425237D012B2AD1A3689F
:102F9000591C09D001A80193FFF7E2FE019B03F53C
:102FA000E073002240F82320E3685A1C13D001A8E4
:102FB0000193FFF7D5FE019A01239340C0F808352D
:102FC000E368019301A8FFF7CBFE019B03F5E073D3
:102FD000032240F82320D4E902212B68C3F8081506
:102FE000C3F81025242303FB08F3F218C2F8049059
:102FF0002269F250B9F1000F4BD0286894F81C9068
:10300000324A4FF48871FFF7A3FE28684FF490719D
:10301000FFF79EFE28684FF49271FFF799FE28682B
:103020004FF4A271FFF794FE28684FF4AC71FFF7DC
:103030008FFE2B68C3F804232C68B9F1070F4FEA01
:10304000143A44F3073403D921496B20FDF7ECFD12
:10305000002CAEBF04F160431E4B0AF00F0A4FEA8A
:103060004919A8BF03F561435FFA89F9B4BF03F8B2
:103070000A9083F800932B681A0B43F30733002B55
:1030800007DB02F01F0101228A405B09124941F867
:1030900023202B680822C3F80025242303FB08669D
:1030A0000023C6E906337361012386F820303846D1
:1030B00002B0BDE8F0870827F9E71127F7E700BF5E
:1030C000EBBC00008C120020CD2D0000100342004C
:1030D000A2BC000014ED00E000E100E02DE9F8439F
:1030E000364D0679242303FB065304465B68B3B1CF
:1030F0000368334AC3F8082303681A0B43F3073302
:10310000002B0CDB02F01F015B0901228A402033F7
:103110002C4941F82320BFF34F8FBFF36F8F2268F4
:10312000D2F8003223F02003C2F8003223680122D3
:103130005A6020684FF4AC71FFF70AFE2368DA602A
:103140002368D3F85821002AFBD00022C3F80025B9
:1031500023684FF0FF32D3F80C05D3F81495D3F859
:103160000875D3F81085C3F80C25C3F81425236817
:103170009042C3F80825C3F8102501D0FFF708FED8
:10318000B9F1FF3F02D04846FFF702FEB8F1FF3F1A
:1031900002D04046FFF7FCFD7B1C02D03846FFF70B
:1031A000F7FD2068FEF7B2FF242303FB065500233A
:1031B00085F820306B60BDE8F88300BF8C120020DA
:1031C0001003420000E100E00279044B242101FBDE
:1031D00002335869003818BF012070478C12002054
:1031E0002DE9F047394F90F804A0242303FB0A731C
:1031F000054693F82030012B8846914604D0344987
:1032000040F22D10FDF710FDB8F1000F04D1304948
:103210004FF49770FDF708FDB9F1000F04D12C4968
:1032200040F22F10FDF700FD2B7913B9B9F5803F5F
:1032300004D327494FF49870FDF7F6FC08F060437B
:10324000B3F1005F3CD12846FFF7BEFF04460028DB
:1032500038D1242606FB0A764FF49071C6F81490F4
:10326000C6F808802868FFF773FD4FF4AC71286832
:10327000FFF76EFD2B687269B168C3F84415C3F897
:1032800048252B6801229A607368EBB92B68D3F844
:103290002021D3F858011AB90028F8D00F2008E0EF
:1032A0000028FBD10122DA602A68D2F85831002BBD
:1032B000FBD0242303FB0A7700237B61BDE8F08762
:1032C0001020FBE71120F9E72046F7E78C120020D9
:1032D000EBBC00002DE9F041484E0579242303FBA7
:1032E0000563044693F82030012B8846174604D026
:1032F00043494FF4C070FDF797FCB8F1000F04D1BB
:103300003F4940F28110FDF78FFC27B93C494FF44B
:10331000C170FDF789FC237913B9B7F5803F04D359
:10332000374940F28310FDF77FFC08F06043B3F1AA
:10333000005F61D1242303FB0563596821B1236831
:103340004FF40472C3F80823242303FB05639A692E
:1033500052B1DA69002A3DD021B123684FF40472DA
:10336000C3F80423112033E09F61C3F80C80DA61B5
:1033700020684FF48871FFF7EBFC20684FF4A271CE
:10338000FFF7E6FC2368C3F83485C3F83875236873
:103390002ABB01221A6025792368242202FB0562D8
:1033A00052681ABBD3F81011D3F84421D3F8240182
:1033B000114302D10028F5D00A46242303FB0566F9
:1033C0000023984218BF03209A42B36118BF0F2010
:1033D000BDE8F081C3F81080DF610122C8E7D3F8AF
:1033E000002242F02002C3F80022D4E74FF4047216
:1033F000C3F804230020EBE71020E9E78C1200203B
:10340000EBBC0000BFF34F8F0549064BCA6802F4BE
:10341000E0621343CB60BFF34F8F00BFFDE700BFF7
:1034200000ED00E00400FA054FF08053D3F830219E
:103430000D2A03BFD3F83401B0FA80F04009002010
:103440007047000008B5FFF7EFFF40B14FF0804331
:103450000022C3F80C21C3F81021C3F83825FFF768
:10346000E3FF002846D04FF08052584BD2F80414A6
:10347000C3F82015D2F80814C3F82415D2F80C1498
:10348000C3F82815D2F81014C3F82C15D2F8141468
:10349000C3F83015D2F81814C3F83415D2F81C1438
:1034A000C3F84015D2F82014C3F84415D2F82414F8
:1034B000C3F84815D2F82814C3F84C15D2F82C14C8
:1034C000C3F85015D2F83014C3F85415D2F8341498
:1034D000C3F86015D2F83814C3F86415D2F83C1458
:1034E000C3F86815D2F84014C3F86C15D2F8442418
:1034F000C3F87025FFF798FF48B14FF08043D3F829
:103500000024D10744BF6FF00102C3F80024304A01
:10351000D2F8883043F47003C2F88830BFF34F8F7D
:10352000BFF36F8F4FF01023D3F80C22D2071DD5B5
:10353000284B0122C3F80425D3F80024002AFBD02D
:103540004FF01022D2F80C3223F00103C2F80C32F3
:10355000204BD3F80024002AFBD00022C3F8042516
:10356000D3F80024002AFBD0FFF74CFFD3F8002249
:10357000002A03DBD3F80432002B22DA154B012298
:10358000C3F80425D3F80024002AFBD04FF0102202
:103590001221C2F80012D3F80024002AFBD04FF009
:1035A00010231222C3F804220A4BD3F80024002A65
:1035B000FBD00022C3F80425D3F80024002AFBD056
:1035C000D2E7054B054A1A6008BD00BF00C00040A5
:1035D00000ED00E000E001401C0000200090D0035E
:1035E0000649074A074B9B1A03DD043BC858D050D5
:1035F000FBDCFFF727FFFCF74BFE000070C100006B
:1036000000000020DC090020FEE7FEE7FEE7FEE701
:10361000FEE7FEE7FEE7FEE7FEE7FEE700230146E2
:103620001A46184601F0D4BD08B50021044601F041
:1036300003FE044B1868C36B03B19847204606F09D
:103640001FFC00BF44BE000038B5084B084D5B1B93
:103650009C1007D0043B1D44013C55F804399847A1
:10366000002CF9D1BDE8384007F028BADC09002069
:10367000D809002070B50D4E0D4D761BB61006D042
:10368000002455F8043B01349847A642F9D1094E6D
:10369000094D761B07F00CFAB61006D0002455F839
:1036A000043B01349847A642F9D170BDCC090020F3
:1036B000CC090020D8090020CC090020844641EA2A
:1036C000000313F003036DD1403A41D351F8043B9A
:1036D00040F8043B51F8043B40F8043B51F8043BEC
:1036E00040F8043B51F8043B40F8043B51F8043BDC
:1036F00040F8043B51F8043B40F8043B51F8043BCC
:1037000040F8043B51F8043B40F8043B51F8043BBB
:1037100040F8043B51F8043B40F8043B51F8043BAB
:1037200040F8043B51F8043B40F8043B51F8043B9B
:1037300040F8043B51F8043B40F8043B51F8043B8B
:1037400040F8043B51F8043B40F8043B403ABDD2FA
:10375000303211D351F8043B40F8043B51F8043B9C
:1037600040F8043B51F8043B40F8043B51F8043B5B
:1037700040F8043B103AEDD20C3205D351F8043B2B
:1037800040F8043B043AF9D2043208D0D2071CBFF7
:1037900011F8013B00F8013B01D30B880380604620
:1037A000704700BF082A13D38B078DD010F0030396
:1037B0008AD0C3F10403D21ADB071CBF11F8013B06
:1037C00000F8013B80D331F8023B20F8023B7BE755
:1037D000043AD9D3013A11F8013B00F8013BF9D280
:1037E0000B7803704B7843708B788370604670471A
:1037F000830730B548D0541E002A3FD0CAB20346D2
:1038000001E0013C3AD303F8012B9D07F9D1032CC9
:103810002DD9CDB245EA05250F2C45EA054536D907
:10382000A4F1100222F00F0C03F1200EE6444FEA3F
:10383000121C03F1100242E9045542E9025510320C
:103840007245F8D10CF1010214F00C0F03EB0212D7
:1038500004F00F0C13D0ACF1040323F00303043382
:10386000134442F8045B9342FBD10CF003042CB1E7
:10387000CAB21C4403F8012B9C42FBD130BD644604
:103880001346002CF4D1F9E703461446BFE71A4665
:10389000A446E0E70EB400B582B003AB816853F8EC
:1038A000042B019300F05CF902B05DF804EB03B067
:1038B000704700BF0FB400B5074983B004AB086878
:1038C00053F8042B8168019300F04AF903B05DF8C6
:1038D00004EB04B0704700BF2000002000294FF423
:1038E00080630CBF0222002200F000B82DE9F043F3
:1038F0005A4CD4F8008083B004460E4617461D4645
:10390000B8F1000F03D0D8F83830002B68D0022F60
:1039100005D0012F00F28E80002DC0F28B80214651
:10392000404602F0BBFD216B41B104F140039942D6
:1039300002D0404602F04CFF00232363B4F90CC0D0
:1039400000231CF0800FA361636051D12CF44A6CFA
:103950002CF0030C022FA4F80CC057D001AB6A4620
:103960002146404603F0F8F8A3891843A08125B307
:1039700026B3D8F838307BB3009BB4F90CC026606E
:10398000AB421CBF4CF4006CA4F80CC0012F04BF68
:103990004CF0010CA4F80CC01CF00800C4E904654C
:1039A0001FFA8CF320D013F001003FD000206D42AD
:1039B000A060A56103B0BDE8F083009D284603F038
:1039C000FBF80646002838D0A38943F08003A38182
:1039D000D8F83830002BCFD1404602F089FECBE733
:1039E000404602F085FE92E7A06003B0BDE8F08398
:1039F0002169404602F0ECFEB4F90CC02CF44A6C8C
:103A00002CF0030C022FA4F80CC0A7D1002004F165
:103A100043034CF0020C00210122C4E90432A4F853
:103A20000CC0A160236003B0BDE8F083A56003B0C3
:103A3000BDE8F0834FF0FF30D7E7DDF80090A945EF
:103A400004D0484603F0B8F8064620B9B4F90CC0D3
:103A50004FF0FF30DBE74D46B6E700BF2000002007
:103A60000000000000000000000000000000000056
:103A70000000000000000000000000000000000046
:103A800090F800F06DE9024520F007016FF0000C9E
:103A900010F0070491F820F040F049804FF0000446
:103AA0006FF00700D1E9002391F840F000F1080021
:103AB00082FA4CF2A4FA8CF283FA4CF3A2FA8CF359
:103AC0004BBBD1E9022382FA4CF200F10800A4FAC0
:103AD0008CF283FA4CF3A2FA8CF3E3B9D1E9042314
:103AE00082FA4CF200F10800A4FA8CF283FA4CF34B
:103AF000A2FA8CF37BB9D1E9062301F1200182FA05
:103B00004CF200F10800A4FA8CF283FA4CF3A2FA0A
:103B10008CF3002BC6D0002A04BF04301A4612BA18
:103B2000B2FA82F2FDE8024500EBD2007047D1E91B
:103B3000002304F00305C4F100004FEAC50514F0AA
:103B4000040F91F840F00CFA05F562EA05021CBF7B
:103B500063EA050362464FF00004A9E70000000095
:103B60002DE9F04F2DED068BBBB01C4688469146E3
:103B700009EE100A054602F077FF03681093184615
:103B80000994FFF77DFF0E901DB1AB6B002B00F089
:103B90004282B8F90C20950493B20AD442F400533F
:103BA000D8F86420A8F80C3022F400529BB2C8F870
:103BB0006420180740F1AB80D8F81020002A00F0EC
:103BC000A68003F01A030A2B00F0B0809FED947BCF
:103BD0000023CDE91E338DED0C7B2AAA0B931D9299
:103BE00092460F931193079399F80030002B00F041
:103BF000A4814C4604E014F8013F002B00F0E5805E
:103C0000252BF8D1B4EB090540F0E3802378002B95
:103C100000F0938100234FF0FF32CDE90523657852
:103C20008DF8573004F1010918469B4609F1010946
:103C3000A5F12002582A00F2F780DFE812F07F0297
:103C4000F500F5007A02F500F500F500F500F50045
:103C5000F5002D027502F50038023D02F5007002F4
:103C6000590059005900590059005900590059008C
:103C70005900F500F500F500F500F500F500F50038
:103C8000F500F500F50057028901F5008901F500FE
:103C9000F500F500F500B602F500F5009800F50016
:103CA000F500F500F500F5008800F500F500950237
:103CB000F500F500F500F500F500F500F500F5005C
:103CC000F500F5008702F001890189018901BB0235
:103CD000F001F500F500EC02F500D6029A00C502ED
:103CE000C002F5001B03F5008A00F500F500F9029B
:103CF000A5F13002002119F8015B01EB810102EB13
:103D00004101A5F13002092AF5D9069190E719EE93
:103D1000100A414601F0F2F9002841F02681B8F876
:103D20000C3003F01A030A2B7FF450AFB8F90E30B1
:103D3000002BFFF64BAF19EE100A23464A464146C8
:103D40003BB0BDEC068BBDE8F04F01F0A1B94BF0E4
:103D5000100B1BF0200100F05081099B073323F06A
:103D60000703596853F8080B099301230EE04BF041
:103D7000100B1BF0200100F03381099B073323F067
:103D80000703596853F8080B0993002300248DF8A2
:103D90005740059A561C00F091822BF0800603963E
:103DA00050EA010640F08882002A40F00D83002B83
:103DB00040F01E851BF00103089300F0948530232A
:103DC0008DF8A7300DF1A7069DE2B4EB090500F0D0
:103DD000B4801F9B2B441F931E9B0133072BCAE902
:103DE00000951E9305DC0AF1080A079B2B440793F4
:103DF0000CE719EE100A1DAA414603F0D3FF18B9CB
:103E00000DF1A80AF1E7B046B8F80C305B0601F1F5
:103E1000AC8007983BB0BDEC068BBDE8F08F00BFCF
:103E20000000000000000000002B40F0E587002D9E
:103E300000F0838000238DF8573001238DF88050E7
:103E40000493089320AE0023CDF80CB005930A9399
:103E5000039B13F0020302D0049A02320492039AE5
:103E600012F0840B05D1069A0499571A002F00F31B
:103E7000A2831F9C9DF857208AB11E9A0DF157010D
:103E800001320134CAF80010072A4FF001011F94D3
:103E90001E92CAF8041000F3DD830AF1080A83B108
:103EA0001E9B16AA01330234CAF80020072B4FF0DC
:103EB00002021F941E93CAF8042000F3DA830AF169
:103EC000080ABBF1800F00F09B82059B089AA3EBC8
:103ED000020BBBF1000F00F3D682039BDF0500F15C
:103EE0001B82089BCAF804301C441E9BCAF8006061
:103EF0000133072B1F941E9300F350830AF1080A25
:103F0000039B5A0705D5069B049A9D1A002D00F3C2
:103F1000BD83DDE9062304998A42ACBF9B185B1878
:103F20000793002C40F0EA8200231E9399F800309A
:103F30000DF1A80A002B7FF45CAE1F9B002B3FF411
:103F400063AF19EE100A1DAA414603F02BFF5BE791
:103F5000002B40F0F687099B073323F00703B3ECEF
:103F6000027B8DED0C7BDDE90C67099327F00043A4
:103F700008EE903A08EE106AB94B51EC180B4FF06E
:103F8000FF3206F0D5FB002840F0B484B44B51EC6E
:103F9000180B4FF0FF3206F0ADFB002840F0AA846A
:103FA000002200233046394606F09AFB002840F0F4
:103FB00002879DF85740AB4E2BF080030393AA4B2A
:103FC0000022472DC8BF1E460323CDE904320893C3
:103FD0000A92002C3FF43CAF049B0133049337E773
:103FE0001BF0100352D11BF040014FD0099A52F838
:103FF000040B0992194680B2C8E61BF010033FD1AA
:104000001BF040013CD0099A52F8040B0992194662
:1040100080B20123BAE6284602F06AFBB9E5002B1C
:1040200040F09F871BF0200F099B68D0073323F0D7
:1040300007031A465B6852F8080B09921946002BD1
:10404000C0F23D84059B013300F005852BF0800311
:10405000039350EA01039DF8574000F0C583DDF853
:104060000CB00A2871F1000380F0FC843030012389
:104070008DF8A700CDF80CB008930DF1A70642E12A
:10408000099B53F8040B099301237FE6099B53F81E
:10409000040B09930B4679E6099A52F8041B069122
:1040A000002980F21B84069909924942069199F8E9
:1040B00000504BF0040BB9E5494611F8015B2A2D7D
:1040C00000F0C587A5F13002092A894698BF002172
:1040D00000F2338719F8015B01EB810102EB41012A
:1040E000A5F13002092AF5D90591A1E5002B40F090
:1040F00030874BF0100B1BF0200F099B96D153F823
:10410000040B09931BF0100F40F0D4831BF0400FF9
:1041100000F0D08340F3C0310B4600B28FE799F82E
:1041200000504BF0800B81E599F8005001232B20C3
:104130007CE599F800504BF0010B77E599F80050B9
:1041400000287FF473AD012320206FE5099B002236
:104150008DF8572053F8042B099301238DF8802004
:104160000493089320AE6EE6002B40F0E2863F4BAE
:104170000F931BF0200163D0099B073323F0070343
:10418000596853F8080B09931BF0010F0BD050EA44
:10419000010308D030238DF858308DF859504BF07A
:1041A000020B0223F2E50223F0E599F800504BF0F0
:1041B000080B3BE599F800504BF0400B36E599F8B9
:1041C00000504BF0200B31E5099B53F8040B099389
:1041D000302378258DF85830254B0F934BF0020B88
:1041E0008DF8595000210223D0E5002B40F0AD8618
:1041F0001BF0200F40F025841BF0100F40F09D8431
:104200001BF0400F00F09984099B079953F8042B89
:1042100009931180E8E499F800506C2D03BF99F8D8
:1042200001504BF0200B09F101094BF0100BFDE49C
:10423000002B40F092860E4B0F931BF020019BD178
:104240001BF0100340F031831BF0400100F02D8380
:10425000099A52F8040B0992194680B294E700BFFC
:10426000FFFFEF7F48BE00004CBE00006CBE0000A8
:1042700058BE0000099C059B54F8046B00278DF87C
:104280005770002E00F027845A1C00F023851A4630
:104290003946304602F04CFF002800F03286831B7E
:1042A000089323EAE373099405979DF85740CDF8E6
:1042B0000CB004930A978CE6DDF80CB0012B3FF4A8
:1042C000D0AE022B00F088802AAE00F00703C008B1
:1042D00040EA4170C908303350EA0107324606F817
:1042E000013DF2D11BF0010F00F08480302B00F073
:1042F00081803023023A06F8013C2AAB9B1ACDF8A4
:104300000CB008931646059B089A9342B8BF134613
:10431000049300230A935CE6652D40F3F980DDE900
:104320000C010022002306F0D1F9002800F0E981F9
:104330001E9BC54ACAF80020013301340122072B15
:104340001F941E93CAF8042000F36B840AF1080A34
:10435000179B0B9A934280F2BC820E9B109A1C44CE
:10436000CAE900231E9B1F940133072B1E9300F301
:10437000A5830AF1080A0B9B5D1E002D7FF7C0ADD7
:10438000102D1E9BB14F40F3408419EE10BA102639
:1043900005E00AF1080A103D102D40F33684013380
:1043A0001034072BCAE90076CDE91E34F1DD1DAAD1
:1043B0004146584603F0F6FC00287FF425ADDDE9C0
:1043C0001E340DF1A80AE6E7012B00F04885022B08
:1043D000DDF80CB07FF478AF0F9A2AAE00F00F032F
:1043E0000009D35C06F8013D40EA0170090950EA72
:1043F0000103F3D12AAB9B1BCDF80CB0089382E7E5
:10440000069B049AA3EB020BBBF1000F7FF75DAD97
:10441000BBF1100F1E9A8D4F27DD2146102319EE98
:10442000104A06E0ABF1100BBBF1100F0AF1080ABD
:104430001ADD01321031072ACAE90073CDE91E21C5
:10444000F0DD1DAA414620460DF1A80A03F0AAFCA2
:1044500000287FF4D9ACABF1100BBBF1100FDDE9F4
:104460001E214FF01003E4DC0C4601325C44072AA5
:10447000CDE91E24CAF80070CAF804B000F3DF8347
:104480000AF1080A21E5BBF1100F1E9A6F4F27DDD4
:104490002146102319EE104A06E0ABF1100BBBF1D8
:1044A000100F0AF1080A1ADD01321031072ACAE991
:1044B0000073CDE91E21F0DD1DAA4146204603F020
:1044C00071FC00287FF4A0ACABF1100BBBF1100F16
:1044D000DDE91E210DF1A80A4FF01003E4DC0C46C3
:1044E00001325C44072ACDE91E24CAF80070CAF8DC
:1044F00004B000F3CC810AF1080AEEE419EE100AC8
:104500001DAA414603F04EFC00283FF40DAD7BE4AC
:104510000B9B012B40F371811E9DCAF80060013591
:1045200001340123072D1F941E95CAF8043000F3AF
:104530000C830AF1080A0E9B109A01351C44072DC2
:10454000CAE90023CDE91E5400F30D830AF1080ADD
:10455000DDE90C010022002306F0B8F8002840F045
:104560006B810B9B0135013B01361C44072DCAF8BA
:1045700000601E95CAF804301F9400F34F810AF1C1
:10458000080A119BCAF8043001351C44072D19ABE9
:10459000CDE91E54CAF800307FF7B0AC19EE100A0E
:1045A0001DAA414603F0FEFB00287FF42DAC1F9CA2
:1045B0000DF1A80AA4E4102FDDE91E2134DD1293C9
:1045C000CDF84C901024B1460B464646B8462F46CF
:1045D00019EE105A06E0A8F11008B8F1100F0AF110
:1045E000080A19DD01321A491033072ACAE90014F2
:1045F000CDE91E23EFDD1DAA314628460DF1A80A9C
:1046000003F0D0FB00287FF4FEABA8F11008B8F14E
:10461000100FDDE91E23E5DC3D4619464746129B97
:10462000B0464E46DDF84C90CAF8047001327C1852
:10463000072A0749CAF80010CDE91E2400F3D582E5
:104640000AF1080A16E400BF88BE00009CBE000004
:104650008CBE000019EE100A1DAA4146129303F009
:10466000A1FB00287FF4D0AB1F9C129B0DF1A80A80
:1046700015E419EE100A1DAA414603F093FB002829
:104680007FF4C2AB1F9C0DF1A80A1AE4102D1E9BEB
:1046900020DD19EE107A102604E0103D102D0AF1ED
:1046A000080A17DD0133914A1034072BCAE90026A6
:1046B000CDE91E34F1DD1DAA414638460DF1A80AA8
:1046C00003F070FB00287FF49FAB103D102DDDE957
:1046D0001E34E7DC0133854ACAF804502C44072B0A
:1046E000CDE91E34CAF800207FF713AC19EE100A8A
:1046F0001DAA414603F056FB00287FF485AB1F9CA2
:1047000007E41799002940F33C82DDE90A379F420C
:10471000A8BF1F46002F0BDD1E9B01333C44072B17
:10472000CAE900671F941E9300F3CB830AF1080ABD
:104730000A9D002FA8BFED1B002D00F3D581179D0A
:104740000B9B9D4280F2AE810E9B109A1C44CAE9DD
:1047500000231E9B1F940133072B1E9300F3A3839A
:104760000AF1080A0B9B0A9A5D1B9F1AAF42A8BF69
:104770002F46002F0EDD1E9BCAF80470013316442D
:104780003C44072BCAF800601F941E9300F3A683D5
:104790000AF1080A002FA8BFED1B002D7FF7B0AB70
:1047A000102D1E9B524F40F3308219EE10BA102686
:1047B00005E00AF1080A103D102D40F3268201336E
:1047C0001034072BCAE90076CDE91E34F1DD1DAAAD
:1047D0004146584603F0E6FA00287FF415ABDDE9C0
:1047E0001E340DF1A80AE6E7059B002B40F0378345
:1047F0000023059308932AAE85E5039BD9073FF56F
:104800008BAE1E9DCAF80060013501340123072DCF
:104810001F941E95CAF804307FF7B1AE19EE100A46
:104820001DAA414603F0BEFA00287FF4EDAADDE997
:104830001E540DF1A80AA4E60B9B5E1E002E7FF706
:10484000A0AE102E2A4F40F35782CDF814904FF0AF
:10485000100B19EE109A05E00AF1080A103E102E0E
:1048600040F3488201351034072DCAE9007BCDE9B9
:104870001E54F1DD1DAA4146484603F093FA002874
:104880007FF4C2AADDE91E540DF1A80AE6E719EE8D
:10489000100A1DAA414603F085FA00287FF4B4AA45
:1048A0001F9C0DF1A80AFFF718BB099B53F8040BD6
:1048B000099369E4C1170B46002BBFF6C3AB404216
:1048C0004FF02D0461EB41018DF857400123FFF7B4
:1048D00060BA039BDD077FF513AB3EE599F8005006
:1048E0000992FFF7A3B92AAE0DE500BF8CBE000008
:1048F0009CBE0000DDE90C0102460B4605F018FFE6
:10490000002840F06583059B013325F0200700F067
:10491000F582472F00F08182DDE90C014BF48072B3
:1049200000290392C0F24C829DED0C7B0023129370
:10493000B0EE47AAF0EE67AA662D00F0E981462D99
:1049400000F0E681B0EE4A0AF0EE6A0A452F0ABF8F
:10495000059B059C5C1C1BAB019318AB009319EEE7
:10496000100A17AB2246022100F062FD672D0646B1
:1049700040F03D821BF0010F40F03C821B9B472F13
:10498000A3EB06030B9340F06E83179B0A93D91C8D
:1049900003DB059A934240F37882023D0A9A8DF830
:1049A0006450531E002B1793B6BFC2F101032B2294
:1049B0002D22092B8DF8652040F3F5820DF173044B
:1049C000C04F2246104687FB0321DA17C2EBA10233
:1049D00002EB8201A3EB4101303100F8011C1946C2
:1049E0006329134600F1FF32ECDC3033D9B2831E69
:1049F0009C4202F8011C40F2278313460DF1660227
:104A000001E013F8011B02F8011B9C42F9D10DF1E2
:104A100075030DF166021B1A134419AA9B1A119310
:104A20000B9A119B012A1344089340F3C882089BF8
:104A30000E9A1344089323EAE373049300230A9322
:104A40009EE1099B079853F8041B0993C217C1E91B
:104A50000002FFF7C9B80A2871F100039DF857401A
:104A6000FFF404ABCDF80C902AAEA1460A22002335
:104A700004460F4605F09AFE303206F8012D002359
:104A8000204639460A2205F091FE0A2C77F10003F0
:104A9000ECD22AAB9B1B4C460893DDF80C90CDF86A
:104AA0000CB030E4039BD8073FF54EAEDDE90A2396
:104AB0009F1A5D1BAF42A8BF2F466BE619EE100A86
:104AC0001DAA414603F06EF900287FF49DA91F9CA2
:104AD0000DF1A80A4FE4062B28BF0623CDE90834C0
:104AE000794E0493FFF7AFB9102D1E9B774F40F31B
:104AF00055813A460596474619EE106A4FF0100B5D
:104B0000904605E00AF1080A103D102D40F342815D
:104B100001331034072BCAE9008BCDE91E34F1DDD7
:104B20001DAA3946304603F03DF9002840F0448282
:104B3000DDE91E340DF1A80AE6E7099B079953F851
:104B4000042B11600993FFF74FB819EE100A1DAA44
:104B5000414603F027F900287FF456A9DDE91E54E9
:104B60000DF1A80AE7E419EE100A1DAA414603F068
:104B700019F900287FF448A9DDE91E540DF1A80AAF
:104B8000E6E41E9B524ACAF8002001330134012298
:104B9000072B1F941E93CAF8042000F31A810AF110
:104BA000080A002959D1039B0B9A03F00103134310
:104BB0003FF4A6A90E9B10991A19CAE900131E9B6F
:104BC0001F920133072B1E9300F32D810AF1080A6F
:104BD0000B99CAF8006001338C18072BCDE91E34FD
:104BE000CAF804107FF78AA9D8E419EE100A1DAAA2
:104BF0004146129303F0D6F800287FF405A91F9CC4
:104C0000129B0DF1A80AFFF735B901332C44072B8D
:104C1000CAF80070CAF80450CDE91E347FF76EA9B7
:104C2000BCE419EE100A1DAA414603F0BBF80028A7
:104C30007FF4EAA81F9C0DF1A80AFFF789BB19EEC3
:104C4000100A1DAA414603F0ADF800287FF4DCA845
:104C50001F9C0DF1A80AFFF738B90E9B10981A197E
:104C6000CAE900031E9B1F920133072B1E9300F31A
:104C7000DA800AF1080A0029AADA4D421031134FEE
:104C800080F2788119EE10BA102405E00AF1080AC2
:104C9000103D102D40F36E8101331032072BCAE90D
:104CA0000074CDE91E32F1DD1DAA4146584603F0DD
:104CB00079F800287FF4A8A8DDE91E320DF1A80AD2
:104CC000E6E700BF6766666680BE00009CBE000027
:104CD00088BE0000304609940597CDF80CB0FEF769
:104CE000CFFE20EAE0739DF85740089004930A979E
:104CF000FFF76FB9DDF81490CAF80070013534443D
:104D0000072DCDE91E54CAF804607FF738AC85E55D
:104D1000059CB0EE4A0AF0EE6A0A1BAB019318AB91
:104D20000093224617AB19EE100A032100F080FB16
:104D3000064604193378302B62D0179B1C4451EC83
:104D40001A0B0022002305F0C1FC002800F08B8024
:104D500023469B1B472F0B933FF417AE662D40F065
:104D60008281179B059A0A93002B0BF0010B40F3ED
:104D70005C815BEA020140F045810A9B0493089341
:104D8000129B002B7BD02D238DF8573000230593E9
:104D9000FFF722B94246059EB846174601332C4418
:104DA000072BCDE91E34CAF80070CAF8045049DC5C
:104DB0000AF1080AC3E42D248DF85740FFF7FBB829
:104DC00001F100430AEE903A2D230AEE100A1293E5
:104DD000B2E519EE100A1DAA414602F0E3FF0028D1
:104DE0007FF412A817991F9C0DF1A80AD9E6472D48
:104DF0003FF4C0AD3444A2E78DF85700FFF717B871
:104E000051EC1A0B0022002305F060FC002894D11D
:104E1000059BC3F10103179390E7059B002B08BF87
:104E20000123059378E519EE100A1DAA414602F008
:104E3000B9FF00287EF4E8AFDDE91E3217990DF1C5
:104E4000A80A18E719EE100A1DAA414602F0AAFFA7
:104E500000287EF4D9AF1F9C0DF1A80A6FE4DDF89D
:104E60000CB0FFF703B91B9BA342BFF472AF302114
:104E70005A1C1B9219701B9B9C42F9D869E7129B24
:104E80009DF857400593FFF7A4B8DDE90A32934235
:104E900043DB1BF0010F40F0AC8023EAE372049285
:104EA000089367256CE719EE100A1DAA414602F027
:104EB00079FF00287EF4A8AF179D1F9C0DF1A80A6A
:104EC00050E419EE100A1DAA414602F06BFF0028BB
:104ED0007EF49AAF1F9C0DF1A80A29E419EE100A7E
:104EE0001DAA414602F05EFF00287EF48DAF179D9B
:104EF0000B9B1F9C5D1B0DF1A80A4BE40623059339
:104F00000AE5059B0994CDF80CB09DF85740049331
:104F1000089305900A90FFF75CB80E9A0B9B134418
:104F20000A9A0893002A75DD23EAE3730493672540
:104F300026E78DF85700FFF71AB900220592FEF711
:104F400077BE8DF85700FFF706B88DF85700FFF7CA
:104F50004FB98DF85700FFF7CCB88DF85700FFF721
:104F60006AB98DF85700FFF75DB84FF0FF3307932C
:104F7000FEF74FBF01332A44072BCDE91E32CAF892
:104F80000070CAF804507FF721AE19EE100A1DAA6E
:104F9000414602F007FF00287EF436AFDDE91E32FD
:104FA0000DF1A80A14E630338DF8673030238DF800
:104FB00066300423119333E5B846FEF725BF1BF096
:104FC00001020A927FF433AD23EAE3730493D7E638
:104FD0000D9B264E002BB8BF2D242BF0800303938E
:104FE000A8BF9DF85740224BB8BF8DF85740FEF739
:104FF000E7BF0A9B0E9A1344089323EAE3730493D2
:105000006725BDE60E990B441A4422EAE273089222
:105010000493B5E60A9B089AC3F101031A4422EAF5
:10502000E273089204936725AAE65BEA020303D1C0
:10503000012304930893A3E60E9B01331A4422EA4A
:10504000E273089204939BE602231193E8E4099A21
:1050500099F80150894652F8041B099241EAE1711E
:105060000591FEF7E3BD179B0A9397E450BE00003D
:1050700054BE000010B4054C8446134620685DF809
:10508000044B0A466146FEF76BBD00BF20000020BE
:1050900070B50C468989ADF58D6D21F00201ADF832
:1050A0000C10616E1991E189ADF80E10E16907915C
:1050B000616A09911AA9009104914FF480610291EB
:1050C00005910021069169460646FEF749FD051E39
:1050D00007DB6946304601F0E1F9002818BF4FF0C0
:1050E000FF35BDF80C305B0603D5A38943F04003C0
:1050F000A38128460DF58D6D70BD00BF38B5334BCB
:105100001B6805460C460BB19A6B12B3B4F90C3010
:1051100018079AB225D5216900292DD012F0010077
:1051200007D00020A06060694042A06139B1002032
:1051300038BD950758BF6069A0600029F7D11206F5
:1051400058BF0846F4D543F04003A3814FF0FF3029
:1051500038BD184601F0CCFAB4F90C3018079AB2F1
:10516000D9D4D1062AD5520714D4216943F00803B3
:10517000A3819AB20029D1D102F42070B0F5007F4A
:10518000CCD02146284601F077FCB4F90C302169D7
:105190009AB2C3E7216B51B104F14002914204D0AD
:1051A000284601F015FBB4F90C3000222263216976
:1051B0000022C4E9001223F02403D7E7092243F0B8
:1051C00040032A604FF0FF30A38138BD200000204B
:1051D00070B4184C2568D5F848411CB365681F2D7C
:1051E00025DC38B9AB1C0135656044F8231000207C
:1051F00070BC704704EB850C0228CCF88820D4F8EA
:1052000088614FF0010202FA05F246EA0206C4F88C
:105210008861CCF80831E5D1D4F88C311343C4F857
:105220008C31DFE705F5A674C5F84841D6E74FF0A5
:10523000FF30DDE744BE00002DE9F84F2B4B1F681F
:10524000D7F848612DED028BC6B108EE100A8B46E7
:105250004FF001084FF000097468651E0ED4013448
:1052600006EB8404BBF1000F0CD0D4F800315B4591
:1052700008D0013D6B1CA4F10404F3D1BDEC028BFA
:10528000BDE8F88F73682268013BAB420CBF7560C4
:10529000C4F80090002AECD0D6F88801D6F804A013
:1052A00008FA05F101420BD190477268524513D1BB
:1052B000D7F84831B342DCD01E46002ECCD1DDE712
:1052C000D6F88C0101420CD1D4F8801018EE100AE7
:1052D000904772685245EBD0D7F84861002EBBD199
:1052E000CCE7D4F880009047DFE700BF44BE000061
:1052F000024B13B10248FEF791B97047000000005D
:1053000049360000000000002DE9F04F03690C69E8
:10531000A34283B0C0F28780013C01F11405A300D1
:1053200000F11408009355F8243058F82420013374
:1053300081469A4208EB840005EB84070190B2FB9A
:10534000F3F63BD30023AE4640469B465EF804ABE3
:1053500002681FFA8AFC06FB0C334FEA134C4FEA33
:105360001A4A06FB0ACA1FFA83FCABEB0C0C1FFAA5
:105370008AF31CFA82FCC3EB124202EB2C421FFAA6
:105380008CFC4CEA0243774540F8043B4FEA224B41
:105390004FEA1A43DAD2009B58F8033073B9019BE5
:1053A000043B984504D307E0984504F1FF3403D249
:1053B00053F80429002AF7D0C9F81040484602F0F3
:1053C000EDF900282BDB01364046002355F8041B7D
:1053D000D0F800C08AB29A1A0B0C12FA8CF2C3EB06
:1053E0001C4303EB224392B242EA0342AF4240F82D
:1053F000042B4FEA2343E9D258F8242008EB840316
:105400006AB9043B984504D307E0984504F1FF349A
:1054100003D253F80429002AF7D0C9F810403046C7
:1054200003B0BDE8F08F002003B0BDE8F08F00BFEF
:105430002DE9F04F2DED068B95B08DED020B01910E
:10544000016C249D099259EC108B0446069341B1DE
:10545000426C4A60012393408B6001F0E3FE00231D
:105460002364B9F1000AB4BF012300232B607C4BF5
:10547000BCBF2AF0004ACDF80CA033EA0A0300F0C2
:10548000B2809DED027B002251EC170BB0EE479AE3
:10549000F0EE679A002305F019F9074680B1069AE5
:1054A00001231360259B002B00F0DB826D48186000
:1054B000431E0093009815B0BDEC068BBDE8F08F3D
:1054C00012AA13A92046B0EE490AF0EE690A02F0CA
:1054D000BDFAB0EE498AF0EE698A5FEA1A560546CF
:1054E00040F09980DDE912763E4406F232402028F1
:1054F00040F3AB83C0F140000AFA00FA06F2124012
:1055000028FA00F04AEA000004F0FEFD0123013E03
:105510000D93A1F1F871544B002204F0B7FC4AA39B
:10552000D3E9002304F06AFE49A3D3E9002304F081
:10553000AFFC80463046894604F0F6FD46A3D3E929
:10554000002304F05BFE02460B464046494604F049
:105550009FFC8046894605F001F90022834600231E
:105560004046494605F0BCF8002840F06D82BBF18A
:10557000160F00F25C823D4B03EBCB03D3E9002313
:1055800051EC190B05F0ACF8002875D00023BE1BB8
:105590000C93731E0BF1FF3B049300F14F82002329
:1055A0000893BBF1000F6EDA089BCDF814B0A3EBA3
:1055B0000B030893CBF100030B93019B092B4FF0D6
:1055C000000B69D8052B40F33E83043B0193002672
:1055D000019B023B032B00F29986DFE813F04E0497
:1055E0004B0443042604069A42F20F73CAF3130ACB
:1055F00013605AEA08031DD1259B002B00F07D861D
:105600001B4B00930833259A0098136015B0BDEC2E
:10561000068BBDE8F08F18EE903AC3F3130351ECFC
:10562000190B43F07F510D97A6F2FF36129F41F4FC
:10563000401170E7259B002B40F0DB830D4B00935E
:1056400038E700BFAFF3008061436F63A787D23FA5
:10565000B3C8608B288AC63FFB799F501344D33F61
:105660000000F07F89BE00000000F83F48BF000046
:10567000B0BE0000ACBE0000BE1B731E049300F160
:105680009A840C900890049B5B44CDE9043B002372
:105690000B93019B092B95D9002301264FF0FF3274
:1056A00001930A9607920993079B0F930021616467
:1056B000204601F091FD0090002800F02F86009B0D
:1056C0002364079B0E2B00F2F980002E00F0F68079
:1056D0000599002940F37184BD4B01F00F0203EBE3
:1056E000C2034FEA2118C905D3E9006740F10384DA
:1056F000B84B51EC190BD3E9082304F0A9FE41EC97
:10570000180B08F00F084FF0030AB8F1000F13D080
:10571000DFF8C09218F0010F09D030463946D9E9B8
:10572000002304F06BFD0AF1010A06460F465FEA0A
:10573000680809F10809EDD151EC180B32463B46D7
:1057400004F086FE41EC1A0B0C9B5BB157EC1A6B14
:10575000A14B1AEE100A0022394604F0C1FF0028BE
:1057600040F05285504604F0DFFC53EC1A2B04F055
:1057700045FD9A4B002204F08BFB079B8046A1F16C
:105780005079002B00F0F383059B1093079B0E9339
:105790000A9B002B00F0C0840E9A8D4B9049DDF8D7
:1057A00000A003EBC20353E90223002004F050FEE3
:1057B00042464B4604F06AFB59EC1A8B41EC180B3D
:1057C00049461AEE100A04F0C9FF074604F0ACFC83
:1057D00002460B461AEE100A494604F057FB3037D2
:1057E0000AF8017B53EC182B06460F4604F078FFAD
:1057F000002840F055854FF000080AEE105ACDF809
:1058000044B055465BEC18AB08EE104A44462AE01B
:105810000E9B01349C424BDA724B50465946002293
:1058200004F0ECFC6F4B002282468B463046394632
:1058300004F0E4FC8946804604F090FF074604F03B
:1058400073FC02460B464046494604F01FFB3037C6
:1058500005F8017B52465B4606460F4604F040FFC2
:10586000002840F0188532463B465B49002004F092
:105870000DFB52465B4604F033FF0028C8D0109B56
:10588000009A0593AA4618EE104A1AEE105A02E042
:10589000924500F0EA84D1461AF8013D392BF7D041
:1058A0000133DBB28AF80030059B01330593ABE18D
:1058B000DDF844B01AEE105A18EE104A139B002B74
:1058C000C0F29480059A0E2A00F39080404B03EBBF
:1058D000C203D3E90089099B002B1BDA079B002B2D
:1058E00018DC40F05D83404B00224046494604F0FE
:1058F00085FC02460B4651EC190B04F0FBFEDDF86B
:105900001CA05646002800F0D082099BDDF80080DC
:10591000DF43D2E242464B4651EC190B04F098FDAE
:1059200004F01CFF0646834604F0FEFB42464B464D
:1059300004F064FC0B46024651EC190B04F0A6FA85
:10594000DDF800A0334630330AF8013B079B012BFA
:1059500000F08E834FF0010B08EE105A08EE904ACB
:105960001D465446DA461DE042464B46304639460F
:1059700004F06EFD04F0F2FE834604F0D5FB4246CF
:105980004B4604F03BFC0AF1010A0B46024639463D
:10599000304604F07BFA0BF13003AA4504F8013BD2
:1059A00000F061830F4B002204F028FC002200234A
:1059B00006460F4604F08AFE0028D5D0A24618EE0F
:1059C000105A18EE904A059B01330593D1461BE10E
:1059D00048BF000038C000000000F03F00001C403D
:1059E0000000E03F00002440000014400A9A002A12
:1059F0003FD0019A012A40F39C82079B03F1FF38B4
:105A00000B9B4345C0F26E82A3EB0808079B002B5B
:105A1000C0F26683049A1A440492089A17461A44FC
:105A200008920121204601F005FD064625E00123EC
:105A3000BE1B0C93731E04937FF5B1ADC6F1010339
:105A4000089300230493ACE5584604F06DFB4246EE
:105A50004B4604F03BFE00287FF489AD0BF1FF3B81
:105A600085E5874B0093009815B0BDEC068BBDE82B
:105A7000F08FDDF82C80089F0A9E002F0CDD049A21
:105A8000002A09DD0899BA421346A8BF3B46C91A45
:105A9000FF1AD31A089104930B9BDBB10A9B002BCE
:105AA00000F08282B8F1000F0FDD314642462046F9
:105AB00001F09CFD2A4601460646204601F0E8FC1E
:105AC00029460546204601F0ADFB0B9BB3EB0802CF
:105AD00040F000830121204601F0ACFCBBF1000F37
